:020000040800F2
:1058000000000520916C0108E9640108F5640108B5
:10581000016501080D650108196501080000000017
:1058200000000000000000000000000025650108E5
:1058300031650108000000003D6501084965010867
:10584000E16C0108E16C0108E16C0108E16C010800
:10585000E16C0108E16C0108D5580108E16C010810
:1058600031FF0008E16C0108E16C0108E16C0108FE
:10587000E16C0108E16C0108E16C0108E16C0108D0
:10588000E16C0108E16C0108E16C0108E16C0108C0
:10589000E16C0108E16C0108E16C0108E16C0108B0
:1058A000E16C0108E16C010829000108E16C0108C4
:1058B000E16C0108E16C0108E16C0108E16C010890
:1058C000E16C0108E16C0108E16C0108E16C010880
:1058D000E16C01087D6C0108E16C0108E16C0108D4
:1058E000E16C0108E16C0108E16C0108E16C010860
:1058F000E16C0108E16C0108E16C0108E16C010850
:10590000E16C0108E16C0108E16C0108E16C01083F
:10591000E16C0108E16C0108E16C0108DD47010858
:10592000E16C0108E16C0108D9460108F1020108A7
:1059300059470108E16C0108E16C0108E16C0108BC
:10594000E16C0108E16C0108E16C0108E16C0108FF
:10595000E16C0108E16C010859650108E16C01087E
:10596000E16C0108E16C0108E16C0108E16C0108DF
:10597000E16C0108E16C0108E16C01080000000025
:10598000E16C0108E16C0108E16C0108E16C0108BF
:10599000E16C0108E16C0108E16C0108E16C0108AF
:0C59A000E16C0108E16C0108000000004F
:1059B00010B5054C237833B9044B13B10448AFF349
:1059C00000800123237010BD88100020000000001B
:1059D0008CF6010808B5034B1BB103490348AFF32C
:1059E000008008BD000000008C1000208CF601082B
:1059F000034613F8012B002AFBD1181A013870470F
:105A000001F0FF01102A2BDB10F0070F08D010F86F
:105A1000013B013A8B422DD010F0070F42B3F6D173
:105A2000F0B441EA012141EA014122F007047FF08C
:105A300000070023F0E80256083C85EA010586EAE3
:105A4000010685FA47F5A3FA87F586FA47F6A5FA1F
:105A500087F68EB9EED1F0BC01F0FF0102F007022B
:105A600032B110F8013B013A83EA010313B1F8D1D6
:105A70000020704701387047002D06BF35460338B7
:105A8000073815F0010F07D1013015F4807F02BFF0
:105A9000013015F4C03F0130F0BC0138704700BF41
:105AA00081F0004102E000BF83F0004330B54FEACF
:105AB00041044FEA430594EA050F08BF90EA020F3C
:105AC0001FBF54EA000C55EA020C7FEA645C7FEACF
:105AD000655C00F0E2804FEA5454D4EB5555B8BFF2
:105AE0006D420CDD2C4480EA020281EA030382EA63
:105AF000000083EA010180EA020281EA0303362DF5
:105B000088BF30BD11F0004F4FEA01314FF4801CC7
:105B10004CEA113102D0404261EB410113F0004FD9
:105B20004FEA03334CEA133302D0524263EB430390
:105B300094EA050F00F0A780A4F10104D5F1200E2E
:105B40000DDB02FA0EFC22FA05F2801841F1000189
:105B500003FA0EF2801843FA05F359410EE0A5F15D
:105B600020050EF1200E012A03FA0EFC28BF4CF08E
:105B7000020C43FA05F3C01851EBE37101F0004544
:105B800007D54FF0000EDCF1000C7EEB00006EEB51
:105B90000101B1F5801F1BD3B1F5001F0CD34908DB
:105BA0005FEA30004FEA3C0C04F101044FEA445232
:105BB00012F5800F80F09A80BCF1004F08BF5FEAB9
:105BC000500C50F1000041EB045141EA050130BD99
:105BD0005FEA4C0C404141EB010111F4801FA4F13C
:105BE0000104E9D191F0000F04BF01460020B1FA91
:105BF00081F308BF2033A3F10B03B3F120020CDAC9
:105C00000C3208DD02F1140CC2F10C0201FA0CF0A6
:105C100021FA02F10CE002F11402D8BFC2F1200C0B
:105C200001FA02F120FA0CFCDCBF41EA0C019040C1
:105C3000E41AA2BF01EB0451294330BD6FEA04040A
:105C40001F3C1CDA0C340EDC04F11404C4F12002F5
:105C500020FA04F001FA02F340EA030021FA04F307
:105C600045EA030130BDC4F10C04C4F1200220FA5E
:105C700002F001FA04F340EA0300294630BD21FA9C
:105C800004F0294630BD94F0000F83F4801306BF62
:105C900081F480110134013D4EE77FEA645C18BF56
:105CA0007FEA655C29D094EA050F08BF90EA020FED
:105CB00005D054EA000C04BF1946104630BD91EAE5
:105CC000030F1EBF0021002030BD5FEA545C05D1E8
:105CD0004000494128BF41F0004130BD14F5800427
:105CE0003CBF01F5801130BD01F0004545F0FE419B
:105CF00041F470014FF0000030BD7FEA645C1ABFD0
:105D0000194610467FEA655C1CBF0B46024650EA06
:105D1000013406BF52EA033591EA030F41F4002132
:105D200030BD00BF90F0000F04BF0021704730B5B8
:105D30004FF4806404F132044FF000054FF000018D
:105D400050E700BF90F0000F04BF0021704730B54E
:105D50004FF4806404F1320410F0004548BF404223
:105D60004FF000013EE700BF42004FEAE2014FEA78
:105D700031014FEA02701FBF12F07F4393F07F4F53
:105D800081F06051704792F0000F14BF93F07F4F85
:105D9000704730B54FF4607401F0004521F00041C8
:105DA00020E700BF50EA010208BF704730B54FF04E
:105DB00000050AE050EA010208BF704730B511F053
:105DC000004502D5404261EB41014FF4806404F18B
:105DD00032045FEA915C3FF4DCAE4FF003025FEA0D
:105DE000DC0C18BF03325FEADC0C18BF033202EB95
:105DF000DC02C2F1200300FA03FC20FA02F001FAEF
:105E000003FE40EA0E0021FA02F11444C1E600BF8D
:105E100070B54FF0FF0C4CF4E06C1CEA11541DBF40
:105E20001CEA135594EA0C0F95EA0C0F00F0DEF80B
:105E30002C4481EA030621EA4C5123EA4C5350EAF0
:105E4000013518BF52EA033541F4801143F4801341
:105E500038D0A0FB02CE4FF00005E1FB02E506F0D2
:105E60000042E0FB03E54FF00006E1FB03569CF027
:105E7000000F18BF4EF0010EA4F1FF04B6F5007F2D
:105E800064F5407404D25FEA4E0E6D4146EB06069F
:105E900042EAC62141EA55514FEAC52040EA5E5028
:105EA0004FEACE2EB4F1FD0C88BFBCF5E06F1ED8D2
:105EB000BEF1004F08BF5FEA500E50F1000041EB09
:105EC000045170BD06F0004646EA010140EA0200B6
:105ED00081EA0301B4EB5C04C2BFD4EB0C0541EAD8
:105EE000045170BD41F480114FF0000E013C00F3ED
:105EF000AB8014F1360FDEBF002001F0004170BD11
:105F0000C4F10004203C35DA0C341BDC04F1140429
:105F1000C4F1200500FA05F320FA04F001FA05F2B5
:105F200040EA020001F0004221F0004110EBD37082
:105F300021FA04F642EB06015EEA430E08BF20EAAE
:105F4000D37070BDC4F10C04C4F1200500FA04F351
:105F500020FA05F001FA04F240EA020001F00041E3
:105F600010EBD37041F100015EEA430E08BF20EA56
:105F7000D37070BDC4F1200500FA05F24EEA020E9E
:105F800020FA04F301FA05F243EA020321FA04F0CD
:105F900001F0004121FA04F220EA020000EBD37084
:105FA0005EEA430E08BF20EAD37070BD94F0000F84
:105FB0000FD101F00046400041EB010111F4801FB8
:105FC00008BF013CF7D041EA060195F0000F18BF69
:105FD000704703F00046520043EB030313F4801FA5
:105FE00008BF013DF7D043EA0603704794EA0C0F5F
:105FF0000CEA135518BF95EA0C0F0CD050EA410675
:1060000018BF52EA4306D1D181EA030101F00041F1
:106010004FF0000070BD50EA410606BF1046194619
:1060200052EA430619D094EA0C0F02D150EA013625
:1060300013D195EA0C0F05D152EA03361CBF104666
:1060400019460AD181EA030101F0004141F0FE4105
:1060500041F470014FF0000070BD41F0FE4141F489
:10606000780170BD70B54FF0FF0C4CF4E06C1CEA89
:1060700011541DBF1CEA135594EA0C0F95EA0C0F3E
:1060800000F0A7F8A4EB050481EA030E52EA0335F9
:106090004FEA013100F088804FEA03334FF080551A
:1060A00045EA131343EA12634FEA022245EA111547
:1060B00045EA10654FEA00260EF000419D4208BFF8
:1060C000964244F1FD0404F5407402D25B084FEAA5
:1060D0003202B61A65EB03055B084FEA32024FF451
:1060E00080104FF4002CB6EB020E75EB030E22BFAE
:1060F000B61A754640EA0C005B084FEA3202B6EB6E
:10610000020E75EB030E22BFB61A754640EA5C001C
:106110005B084FEA3202B6EB020E75EB030E22BFAC
:10612000B61A754640EA9C005B084FEA3202B6EBAD
:10613000020E75EB030E22BFB61A754640EADC006C
:1061400055EA060E18D04FEA051545EA16754FEACE
:1061500006164FEAC30343EA52734FEAC2025FEAEC
:106160001C1CC0D111F4801F0BD141EA00014FF07B
:1061700000004FF0004CB6E711F4801F04BF01434C
:106180000020B4F1FD0C88BFBCF5E06F3FF6AFAE68
:10619000B5EB030C04BFB6EB020C5FEA500C50F1F8
:1061A000000041EB045170BD0EF0004E4EEA11317B
:1061B00014EB5C04C2BFD4EB0C0541EA045170BD82
:1061C00041F480114FF0000E013C90E645EA060EC6
:1061D0008DE60CEA135594EA0C0F08BF95EA0C0FF4
:1061E0003FF43BAF94EA0C0F0AD150EA01347FF43C
:1061F00034AF95EA0C0F7FF425AF104619462CE713
:1062000095EA0C0F06D152EA03353FF4FDAE104675
:10621000194622E750EA410618BF52EA43067FF4C6
:10622000C5AE50EA41047FF40DAF52EA43057FF456
:10623000EBAE12E74FF0FF3C06E000BF4FF0010C61
:1062400002E000BF4FF0010C4DF804CD4FEA410CC5
:106250007FEA6C5C4FEA430C18BF7FEA6C5C1BD092
:1062600001B050EA410C0CBF52EA430C91EA030F13
:1062700002BF90EA020F0020704710F1000F91EA70
:10628000030F58BF994208BF90422CBFD8176FEA3E
:10629000E37040F0010070474FEA410C7FEA6C5C0C
:1062A00002D150EA013C07D14FEA430C7FEA6C5C13
:1062B000D6D152EA033CD3D05DF8040B704700BF3F
:1062C0008446104662468C461946634600E000BF8D
:1062D00001B5FFF7B7FF002848BF10F1000F01BD5F
:1062E0004DF808EDFFF7F4FF0CBF012000205DF82A
:1062F00008FB00BF4DF808EDFFF7EAFF34BF0120AF
:1063000000205DF808FB00BF4DF808EDFFF7E0FF47
:1063100094BF012000205DF808FB00BF4DF808ED98
:10632000FFF7CEFF94BF012000205DF808FB00BFFF
:106330004DF808EDFFF7C4FF34BF012000205DF8E1
:1063400008FB00BF4FEA410C7FEA6C5C02D150EAC7
:10635000013C0AD14FEA430C7FEA6C5C02D152EA5D
:10636000033C02D14FF0000070474FF0010070472E
:106370004FEA410212F5001215D211D56FF478736D
:10638000B3EB625212D94FEAC12343F0004343EA10
:10639000505311F0004F23FA02F018BF40427047EB
:1063A0004FF00000704750EA013005D111F0004075
:1063B00008BF6FF0004070474FF00000704700BF0B
:1063C0004A0011D212F5001211D20DD56FF4787374
:1063D000B3EB62520ED44FEAC12343F0004343EAC9
:1063E000505323FA02F070474FF00000704750EA14
:1063F000013002D14FF0FF3070474FF0000070477E
:106400004FEA4102B2F1E04324BFB3F5001CDCF1D6
:10641000FE5C0DD901F0004C4FEAC0024CEA50700E
:10642000B2F1004F40EB830008BF20F0010070473D
:1064300011F0804F21D113F13872BCBF01F0004040
:10644000704741F480114FEA5252C2F11802C2F172
:10645000200C10FA0CF320FA02F018BF40F00100F3
:106460004FEAC1234FEAD32303FA0CFC40EA0C00A5
:1064700023FA02F34FEA4303CCE77FEA625307D1E2
:1064800050EA01331EBF4FF0FE4040F44000704719
:1064900001F0004040F0FE4040F40000704700BFB3
:1064A00053B94AB9002908BF00281CBF4FF0FF317B
:1064B0004FF0FF3000F07AB9ADF1080C6DE904CE71
:1064C00000F006F8DDF804E0DDE9022304B07047CF
:1064D0002DE9F0478C460D460446089E002B51D10D
:1064E0008A4217466DD9B2FA82FEBEF1000F0BD078
:1064F000CEF1200C01FA0EF520FA0CFC02FA0EF790
:106500004CEA050C00FA0EF44FEA174A250CBCFBC6
:10651000FAF81FFA87F90AFB18CC45EA0C4508FB84
:1065200009F3AB420AD9ED1908F1FF3280F023815B
:10653000AB4240F22081A8F102083D44ED1AA4B21A
:10654000B5FBFAF00AFB105544EA054400FB09F9D3
:10655000A14509D9E41900F1FF3380F00A81A14572
:1065600040F2078102383C44A4EB090440EA0840A9
:106570000021002E61D024FA0EF4002334607360F1
:10658000BDE8F0878B4207D9002E54D0002186E861
:1065900021000846BDE8F087B3FA83F1002940F0F6
:1065A0008E80AB4202D3824200F2FA80841A65EBFD
:1065B00003050120AC46002E3FD086E81010BDE850
:1065C000F08712B90127B7FBF2F7B7FA87FEBEF1E1
:1065D000000F34D1EB1B3A0C1FFA87FC0121B3FBEF
:1065E000F2F8250C02FB183345EA03450CFB08F3CF
:1065F000AB4207D9ED1908F1FF3002D2AB4200F2ED
:10660000D1808046ED1AA3B2B5FBF2F002FB105523
:1066100043EA05440CFB00FCA44507D9E41900F14A
:10662000FF3302D2A44500F2B8801846A4EB0C0454
:1066300040EA08409DE731463046BDE8F087CEF19C
:10664000200405FA0EF307FA0EF720FA04F83A0CC4
:1066500025FA04F448EA0308B4FBF2F14FEA1845BE
:1066600002FB11441FFA87FC45EA044501FB0CF3C9
:10667000AB4200FA0EF409D9ED1901F1FF3080F0B8
:106680008A80AB4240F2878002393D44EB1A1FFA00
:1066900088F5B3FBF2F002FB103345EA034500FB3B
:1066A0000CF3AB4207D9ED1900F1FF386FD2AB42C2
:1066B0006DD902383D44EB1A40EA01418FE7C1F140
:1066C000200722FA07F88B4005FA01F448EA030391
:1066D00020FA07FE4FEA134CFD404EEA040EB5FBCC
:1066E000FCF94FEA1E440CFB19551FFA83F844EAE3
:1066F000054509FB08F4AC4202FA01F200FA01FA7E
:1067000008D9ED1809F1FF3043D2AC4241D9A9F1C3
:1067100002091D442D1B1FFA8EFEB5FBFCF00CFB7D
:1067200010554EEA054400FB08F8A04507D9E418C7
:1067300000F1FF3529D2A04527D902381C4440EA90
:106740000940A4EB0804A0FB02894C45C6464D460F
:1067500015D312D056B1BAEB0E0364EB050404FA5C
:1067600007F7CB401F43CC40376074600021BDE881
:10677000F0871846F8E69046E0E6C245EAD2B8EB64
:10678000020E69EB03050138E4E72846D7E74046E7
:1067900091E78146BEE7014678E702383C4445E789
:1067A000084608E7A8F102083D442BE7704700BF00
:1067B00080B500AF032001F02FFD002000F006F8A7
:1067C0000FF04AFA0023184680BD000080B582B061
:1067D00000AF7860094B1B68094AA2FB03239B09A1
:1067E000184601F062FD002279684FF0FF3001F099
:1067F0001EFD002318460837BD4680BDE009002075
:10680000D34D621080B400AF044B1B680133034AC0
:10681000136000BFBD465DF8047B70470C85002007
:1068200080B400AF034B1B681846BD465DF8047B7F
:10683000704700BF0C85002080B584B000AF786041
:10684000FFF7EEFFB8607B68FB60FB68B3F1FF3FCA
:1068500002D0FB680133FB6000BFFFF7E1FF024697
:10686000BB68D21AFB689A42F7D300BF1037BD4607
:1068700080BD80B483B000AF786039607B689B686E
:1068800023F47C123B681A437B689A6000BF0C3784
:10689000BD465DF8047B704780B483B000AF78607C
:1068A00039607B689B6823F0E0723B681A437B6821
:1068B0009A6000BF0C37BD465DF8047B704780B41A
:1068C00083B000AF78607B689B6803F0E073184684
:1068D0000C37BD465DF8047B7047000090B484B06F
:1068E00000AFF860B9607A603B60FB6860331A46BD
:1068F000BB689B0013441C462268084B13407A680F
:1069000002F0F8413A680A43134343F0004323601E
:1069100000BF1037BD4690BC704700BF00F0FF03BA
:1069200090B482B000AF786039607B6860331A46FB
:106930003B689B0013441C46236803F0F843184649
:106940000837BD4690BC704790B484B000AFF86083
:10695000B9607A60FB6860331A46BB689B001344D9
:106960001C46236823F000427B681343236000BF6A
:106970001037BD4690BC704780B483B000AF7860DC
:1069800039607B685B6923F000423B681A437B688F
:106990005A6100BF0C37BD465DF8047B704790B468
:1069A00086B000AFF860B9607A60FB683033194692
:1069B000BB6803F440724FF440737B617B6993FAC8
:1069C000A3F33B613B69B3FA83F322FA03F39B0021
:1069D0000B441C462268BB6803F01F031F2101FA09
:1069E00003F3DB431A407B689B0E03F01F01BB6877
:1069F00003F01F0301FA03F31343236000BF1837AA
:106A0000BD4690BC704790B48AB000AFF860B960E2
:106A10007A60FB6814331946BB6803F000724FF0CC
:106A200000737B617B6993FAA3F33B613B69B3FA23
:106A300083F322FA03F39B000B441C462268BB68D5
:106A400003F0F8714FF0F873FB61FB6993FAA3F35D
:106A5000BB61BB69B3FA83F321FA03F3072101FA9F
:106A600003F3DB431A40BB6803F0F8714FF0F8738F
:106A70007B627B6A93FAA3F33B623B6AB3FA83F3CC
:106A800021FA03F3796801FA03F31343236000BF8B
:106A90002837BD4690BC704780B485B000AFF86021
:106AA000B9607A60FB68D3F8B020BB68C3F3120307
:106AB000DB431A407B6803F0200308499940BB6818
:106AC0000B40C3F312031A43FB68C3F8B02000BFA6
:106AD0001437BD465DF8047B704700BFFFFF070019
:106AE00080B483B000AF78607B689B6823F020435C
:106AF00023F03F037A68936000BF0C37BD465DF812
:106B0000047B704780B483B000AF78607B689B687B
:106B100003F00053B3F1005F0CBF01230023DBB28D
:106B200018460C37BD465DF8047B704780B483B0CF
:106B300000AF78607B689B6823F0104323F03F032D
:106B400043F080527B689A6000BF0C37BD465DF809
:106B5000047B704780B483B000AF78607B689B682B
:106B600003F08053B3F1805F0CBF01230023DBB23D
:106B700018460C37BD465DF8047B704780B483B07F
:106B800000AF78607B689B6823F0004323F03F03ED
:106B900043F001027B689A6000BF0C37BD465DF888
:106BA000047B704780B483B000AF78607B689B68DB
:106BB00023F0004323F03F0343F002027B689A6016
:106BC00000BF0C37BD465DF8047B704780B483B0CE
:106BD00000AF78607B689B6823F0004323F03F039D
:106BE00043F004027B689A6000BF0C37BD465DF835
:106BF000047B704780B483B000AF78607B689B688B
:106C000023F0004323F03F0343F010027B689A60B7
:106C100000BF0C37BD465DF8047B704780B483B07D
:106C200000AF78607B689B6803F00403042B0CBF03
:106C300001230023DBB218460C37BD465DF8047B08
:106C40007047000080B586B000AF78600023FB7508
:106C500000233B610023FB607B68002B01D10123F3
:106C6000A9E17B681B69002B7B68DB6D002B09D1D8
:106C700078680FF03FF87B6800221A667B68002274
:106C800083F858207B681B681846FFF73BFF0346D4
:106C9000002B04D07B681B681846FFF721FF7B6838
:106CA0001B681846FFF756FF0346002B16D17B687A
:106CB0001B681846FFF73AFF9E4B1B689E4AA2FBD3
:106CC0000323DA0C13469B0013445B00FB6002E0D5
:106CD000FB68013BFB60FB68002BF9D17B681B68FC
:106CE0001846FFF737FF0346002B0DD17B68DB6D9D
:106CF00043F010027B68DA657B681B6E43F001028B
:106D00007B681A660123FB757B68DB6D03F010035B
:106D1000002B40F047817B681B681846FFF77EFF19
:106D20000346002B40F03E817B68DB6D23F48173CA
:106D300043F002027B68DA657B681B689B6803F09E
:106D40000303012B08D17B681B681B6803F0010358
:106D5000012B01D1012300E00023002B7BD17B68B4
:106D60001B68764A934220D1754B9B6803F003035E
:106D7000012B05D1724B1B6803F00103012B0BD0D3
:106D8000704B9B6803F00303012B07D16D4B1B680D
:106D900003F00103012B01D1012300E00023002BAC
:106DA0000CBF01230023DBB24DE07B681B68644A03
:106DB000934220D1614B9B6803F00303012B05D163
:106DC0005E4B1B6803F00103012B0BD05D4B9B68EE
:106DD00003F00303012B07D15A4B1B6803F0010397
:106DE000012B01D1012300E0002303F00103DBB2FA
:106DF000002B20D113E0514B9B6803F00303012BC0
:106E000007D14E4B1B6803F00103012B01D1012375
:106E100000E0002303F00103DBB2002B0BD1484B51
:106E20009B6803F00303012B07D1454B1B6803F05C
:106E30000103012B01D1012300E00023002B0CBF33
:106E400001230023DBB2002B05D07B685B68194669
:106E50003D48FFF70EFD7B68DB695A037B689B6B3F
:106E60001A437B68DB681A437B689B681A437B681C
:106E70005B6A1B0413433B617B685B6A012B06D191
:106E80007B689B6A013B5B043A6913433B617B6807
:106E9000DB6A002B09D07B68DB6A03F470727B68C5
:106EA0001B6B13433A6913433B617B681A687B6829
:106EB0001B68D968254B0B4039690B43D3607B684D
:106EC0001B689B6803F00C03002B49D17B681A6D8B
:106ED0007B689B699B031A437B685B6B5B00134376
:106EE0003B617B681A687B681B68DB6823F480431E
:106EF00023F0060339690B43D3607B68DB6B012BFE
:106F000026D17B681A687B681B681B6923F4FF63C2
:106F100023F004037968086C7968496C0843796840
:106F2000896C08437968C96C01430B4343F0010342
:106F3000136115E0E009002083DE1B4300000450CC
:106F400000010450000204500003045007C0F0FF89
:106F50007B681B687A681268126922F001021A6164
:106F60007B681B69012B0CD17B681B687A681268EF
:106F7000126B22F00F017A68126A013A0A431A630F
:106F800007E07B681B687A681268126B22F00F02B8
:106F90001A637B68DB6D23F0030343F001027B6817
:106FA000DA6507E07B68DB6D43F010027B68DA6529
:106FB0000123FB75FB7D18461837BD4680BD00BF19
:106FC00080B586B000AFF860B9607A600023FB75C9
:106FD000FB681B681846FFF721FE0346002B40F0B4
:106FE000A780FB6893F85830012B01D10223A2E05F
:106FF000FB68012283F85820FB681B68504A9342C3
:1070000004D0FB681B684F4A934213D14E4B9B68D8
:1070100003F01F03002B0DD04B4B9B6803F01F03A5
:10702000052B07D0484B9B6803F01F03092B01D0A9
:10703000012300E00023002B73D1FB681B68184676
:10704000FFF79CFD0023FB75FB7D002B64D1FB68E3
:10705000DB6D23F4706323F0010343F48072FB685B
:10706000DA65FB681B68364A93420AD0FB681B68E6
:10707000364A934205D0344B9B6803F01F03002B24
:1070800005D1FB68DB6D23F48012FB68DA65FB68D1
:10709000DB6D03F48053B3F5805F06D1FB681B6E94
:1070A00023F00602FB681A6602E0FB6800221A66FB
:1070B000FB685B6D264ADA62FB685B6D254A1A63E2
:1070C000FB685B6D244A5A63FB681B681C221A60CC
:1070D000FB68002283F85820FB681B68FA68126876
:1070E000526842F010025A60FB681B68FA68126826
:1070F000D26842F00102DA60FB68586DFB681B68D9
:1071000040331946BA687B6801F07CFDFB681B6858
:107110001846FFF75BFD0DE0FB68002283F858205E
:1071200008E00123FB75FB68002283F8582001E08A
:107130000223FB75FB7D18461837BD4680BD00BF96
:1071400000000450000104500003045000020450E9
:10715000617C0008377D0008537D000880B584B04D
:1071600000AF78600023FB737B6893F85830012BE5
:1071700001D102234AE07B68012283F858200321D1
:10718000786800F067FC0346FB73FB7B002B38D16B
:107190007B681B687A681268D26822F00102DA60A4
:1071A0007B685B6D184601F08DFD0346FB73FB7B2E
:1071B000002B05D07B68DB6D43F040027B68DA650D
:1071C0007B681B687A681268526822F010025A6065
:1071D000FB7B002B05D1786800F0E6FC0346FB73CF
:1071E00002E0786800F0E0FCFB7B002B09D17B68B3
:1071F000DB6D23F4885323F0010343F001027B6825
:10720000DA657B68002283F85820FB7B184610372C
:10721000BD4680BD80B483B000AF786000BF0C373E
:10722000BD465DF8047B704780B483B000AF7860E2
:1072300000BF0C37BD465DF8047B704780B483B057
:1072400000AF786000BF0C37BD465DF8047B704727
:1072500080B5A4B000AF78603960002387F88F3024
:107260000023FB607B6893F85830012B01D1022387
:10727000D9E37B68012283F858207B681B68184695
:10728000FFF7CCFC0346002B40F0BC833B685B68F7
:10729000052B23D83B685B68023B032B1BD801A25C
:1072A00052F823F0B5720008BD720008C5720008DC
:1072B000CD7200083B680C225A600FE03B68122236
:1072C0005A600BE03B6818225A6007E03B684FF4B5
:1072D00080725A6002E03B6806225A607B68186838
:1072E0003B6859683B681B681A46FFF758FB7B6888
:1072F0001B689B6803F00C03002B40F058813B682F
:107300009B68B3F1004F0FD17B6818683B681B681E
:1073100000221946FFF777FB7B681B684FF000419E
:107320001846FFF729FB0EE07B6818683B68196870
:107330003B689B681A46FFF766FB7B681B68002169
:107340001846FFF719FB3B685A697B681B68DB68C6
:10735000DB0803F003035B0002FA03F3C7F888308D
:107360003B681B69042B0AD07B6818683B68196965
:107370003B681A68D7F88830FFF7B0FA17E17B68E6
:107380001B6800211846FFF7CBFA0346C3F312032C
:10739000002B0AD17B681B6800211846FFF7C0FA52
:1073A00003469B0E03F01F0213E07B681B6800215D
:1073B0001846FFF7B5FA0346C7F88430D7F884308B
:1073C00093FAA3F3C7F88030D7F88030B3FA83F389
:1073D0001A463B681B68C3F31203002B05D13B68B8
:1073E0001B689B0E03F01F0309E03B681B68FB67EB
:1073F000FB6F93FAA3F3BB67BB6FB3FA83F39A42B5
:1074000006D17B681B68002200211846FFF79CFA12
:107410007B681B6801211846FFF782FA0346C3F315
:107420001203002B0AD17B681B6801211846FFF765
:1074300077FA03469B0E03F01F020FE07B681B6880
:1074400001211846FFF76CFA03467B677B6F93FABE
:10745000A3F33B673B6FB3FA83F31A463B681B68A1
:10746000C3F31203002B05D13B681B689B0E03F08E
:107470001F0309E03B681B68FB66FB6E93FAA3F3EE
:10748000BB66BB6EB3FA83F39A4206D17B681B6876
:10749000002201211846FFF757FA7B681B6802217A
:1074A0001846FFF73DFA0346C3F31203002B0AD137
:1074B0007B681B6802211846FFF732FA03469B0ED1
:1074C00003F01F020FE07B681B6802211846FFF7DC
:1074D00027FA03467B667B6E93FAA3F33B663B6E0B
:1074E000B3FA83F31A463B681B68C3F31203002BFD
:1074F00005D13B681B689B0E03F01F0309E03B6846
:107500001B68FB65FB6D93FAA3F3BB65BB6DB3FA18
:1075100083F39A4206D17B681B6800220221184639
:10752000FFF712FA7B681B6803211846FFF7F8F98A
:107530000346C3F31203002B0AD17B681B680321A7
:107540001846FFF7EDF903469B0E03F01F020FE00C
:107550007B681B6803211846FFF7E2F903467B6549
:107560007B6D93FAA3F33B653B6DB3FA83F31A4645
:107570003B681B68C3F31203002B05D13B681B68F3
:107580009B0E03F01F0309E03B681B68FB64FB6C68
:1075900093FAA3F3BB64BB6CB3FA83F39A4206D1AC
:1075A0007B681B68002203211846FFF7CDF97B6832
:1075B0001B689B6803F00303012B08D17B681B68E1
:1075C0001B6803F00103012B01D1012300E000231C
:1075D000002B40F022827B6818683B6819683B6882
:1075E000DB681A46FFF758FA3B68DB68A54A934206
:1075F00040F0E7807B6818683B681B68C3F31203A0
:10760000002B0BD13B681B689B0E03F01F0301335B
:10761000092B94BF01230023DBB20FE03B681B68FA
:107620007B647B6C93FAA3F33B643B6CB3FA83F308
:107630000133092B94BF01230023DBB2002B5BD065
:107640003B681B68C3F31203002B07D13B681B6820
:107650009B0E03F01F0301339A060BE03B681B6887
:10766000FB63FB6B93FAA3F3BB63BB6BB3FA83F3CC
:1076700001339A063B681B68C3F31203002B09D140
:107680003B681B689B0E03F01F030133012101FAC5
:1076900003F30DE03B681B687B637B6B93FAA3F3FA
:1076A0003B633B6BB3FA83F30133012101FA03F32C
:1076B00042EA03013B681B68C3F31203002B0AD1A3
:1076C0003B681B689B0E03F01F035A1C13465B00AC
:1076D00013441B050EE03B681B68FB62FB6A93FAD0
:1076E000A3F3BB62BB6AB3FA83F35A1C13465B0075
:1076F00013441B050B435FE03B681B68C3F3120395
:10770000002B07D13B681B689B0E03F01F0301335E
:107710009A060BE03B681B687B627B6A93FAA3F3D3
:107720003B623B6AB3FA83F301339A063B681B68FA
:10773000C3F31203002B09D13B681B689B0E03F0B7
:107740001F030133012101FA03F30DE03B681B68BD
:10775000FB61FB6993FAA3F3BB61BB69B3FA83F3E3
:107760000133012101FA03F342EA03013B681B687C
:10777000C3F31203002B0CD13B681B689B0E03F074
:107780001F0213465B0013441B3B1B0543F00073B1
:1077900011E03B681B687B617B6993FAA3F33B6153
:1077A0003B69B3FA83F31A4613465B0013441B3B51
:1077B0001B0543F000730B433A6892681946FFF7C4
:1077C00022F93B681B68304A934207D12F48FFF7E4
:1077D00076F8034603F40003002B1BD03B681B68BC
:1077E0002B4A934207D12948FFF769F8034603F073
:1077F0008073002B0ED03B681B68264A934240F0F2
:107800000C812248FFF75BF8034603F48003002B4A
:1078100040F003817B681B689B6803F00303012B26
:1078200008D17B681B681B6803F00103012B01D1A1
:10783000012300E00023002B40F0DA807B681B6806
:10784000154A93422ED1154B9B6803F00303012B7D
:1078500005D1124B1B6803F00103012B0BD0104B19
:107860009B6803F00303012B07D10D4B1B6803F04A
:107870000103012B01D1012300E00023002B5CD088
:10788000B6E000BF00007F40000052C70003045074
:10789000000084CB0100008000000450000104506F
:1078A000000204507B681B68614A934220D1614BFF
:1078B0009B6803F00303012B05D15E4B1B6803F0AB
:1078C0000103012B0BD05C4B9B6803F00303012BDE
:1078D00007D1594B1B6803F00103012B01D1012390
:1078E00000E0002303F00103DBB2002B20D113E002
:1078F000504B9B6803F00303012B07D14D4B1B68D2
:1079000003F00103012B01D1012300E0002303F068
:107910000103DBB2002B0BD1454B9B6803F0030343
:10792000012B07D1424B1B6803F00103012B01D14E
:10793000012300E00023002B5AD13B681B683F4A1B
:10794000934226D17B681B683A4A934204D07B68F5
:107950001B68394A93425FD13948FEF7B0FF0346AE
:1079600043F4000319463648FEF796FF354B1B6873
:10797000354AA2FB0323DA0C13461B019B1ADB00DA
:10798000FB6002E0FB68013BFB60FB68002BF9D168
:1079900042E03B681B682D4A934214D17B681B6808
:1079A000244A934204D07B681B68234A934233D114
:1079B0002348FEF784FF034643F0807319462048AE
:1079C000FEF76AFF28E03B681B68214A934223D1F7
:1079D0007B681B68174A93421ED11948FEF76FFF58
:1079E000034643F4800319461548FEF755FF13E09C
:1079F0007B68DB6D43F020027B68DA65012387F842
:107A00008F300AE07B68DB6D43F020027B68DA652B
:107A1000012387F88F3000E000BF7B68002283F8E5
:107A2000582097F88F3018469037BD4680BD00BF6C
:107A3000000104500000045000020450000052C72E
:107A400000030450E009002083DE1B43000084CBC8
:107A50000100008080B586B000AF786039600023F7
:107A60007B610023FB6000233B617B681B689B6894
:107A700003F00C03002B00F090807B681B68DB6830
:107A800003F00073B3F1007F2AD17B68DB69012B1F
:107A900026D17B689B69012B22D101233B6014E036
:107AA0003B69404A93420DD97B68DB6D43F010027D
:107AB0007B68DA657B681B6E43F001027B681A669F
:107AC00001236BE03B6901333B617B681B681B68EA
:107AD00003F04003402BE3D17B681B6840221A600F
:107AE0003B68022B12D07B681B689B6803F0040381
:107AF000042B0BD17B681B689B6803F00203002BEF
:107B000004D17B681B681846FFF774F83B68012BAB
:107B100015D07B681B689B6803F00803082B0ED107
:107B20007B681B689B6803F00203002B07D17B680E
:107B30001B687A681268926842F020029A603B687B
:107B4000022B04D0032B05D10C237B6105E0082315
:107B50007B6102E004237B6100BFFEF761FEF860F9
:107B600014E0FEF75DFE0246FB68D31A052B0DD923
:107B70007B68DB6D43F010027B68DA657B681B6E07
:107B800043F001027B681A66012307E07B681B68EB
:107B90009A687B691340002BE3D1002318461837FD
:107BA000BD4680BDFFFF330A80B584B000AF78606A
:107BB0000023FB607B681B689B6803F00303012BB9
:107BC00008D17B681B681B6803F00103012B01D1FE
:107BD000012300E00023002B3DD07B681B689B68DD
:107BE00003F00D03012B0CD17B681B681846FEF7D0
:107BF000D9FF7B681B6803221A60FEF711FEF8604C
:107C000022E07B68DB6D43F010027B68DA657B68FD
:107C10001B6E43F001027B681A6601231CE0FEF72D
:107C2000FFFD0246FB68D31A022B0DD97B68DB6D82
:107C300043F010027B68DA657B681B6E43F001023B
:107C40007B681A66012307E07B681B689B6803F06A
:107C50000103012BE3D0002318461037BD4680BD39
:107C600080B584B000AF78607B689B6AFB60FB687E
:107C7000DB6D03F05003002B4AD1FB68DB6D43F44E
:107C80000072FB68DA65FB681B681B6803F0080379
:107C9000082B20D1FB681B68DB6803F44063002BD2
:107CA00032D1FB681B68DB6803F40053002B2BD137
:107CB000FB68DB6D23F48072FB68DA65FB68DB6DC3
:107CC00003F48053002B1FD1FB68DB6D43F00102EE
:107CD000FB68DA6518E0FB681B68DB6803F00203E9
:107CE000002B11D1FB68DB6D23F48072FB68DA6531
:107CF000FB68DB6D03F48053002B05D1FB68DB6D63
:107D000043F00102FB68DA65F868FFF783FA0EE0DA
:107D1000FB68DB6D03F01003102B03D1F868FFF74D
:107D20008DFA04E0FB685B6D5B6B7868984700BF79
:107D30001037BD4680BD80B584B000AF78607B68E9
:107D40009B6AFB60F868FFF76FFA00BF1037BD460B
:107D500080BD80B584B000AF78607B689B6AFB60B3
:107D6000FB68DB6D43F04002FB68DA65FB681B6E65
:107D700043F00402FB681A66F868FFF75FFA00BF79
:107D80001037BD4680BD80B483B000AF78607B689B
:107D90009B6803F00403042B0CBF01230023DBB218
:107DA00018460C37BD465DF8047B704780B584B03B
:107DB00000AF786039600023FB720023FB607B68B2
:107DC00093F85830012B01D1022359E07B6801223E
:107DD00083F858207868FFF7E7FE0346FB72FB7ACA
:107DE000002B42D17B68DB6D23F4885323F0020320
:107DF00043F002027B68DA657B681B687A68126868
:107E0000926822F080413A680A439A607B681B6856
:107E10007A681268926842F000429A6014E0FB6847
:107E20000133FB60FB68B3F57A4F0DD37B68DB6DE4
:107E300023F0120343F010027B68DA657B680022AE
:107E400083F8582001231BE07B681B689B6803F0C4
:107E50000043B3F1004FE2D07B68DB6D23F00303F6
:107E600043F001027B68DA6505E07B68DB6D43F077
:107E700010027B68DA657B68002283F85820FB7A61
:107E800018461037BD4680BD80B5A0B000AF786001
:107E90003960002387F87F307B6893F85830012BD6
:107EA00001D10223B5E07B68012283F858207B686A
:107EB0001B685A4A934202D1594BFB6001E00023F0
:107EC000FB60FB68002B0BD17B68DB6D43F020026D
:107ED0007B68DA657B68002283F85820012398E0EC
:107EE0007B681B681846FFF74EFF0346002B7FD1C7
:107EF000FB681846FFF747FF0346002B78D1494B34
:107F0000BB673B681B68002B3FD0BB6F9B6823F4AB
:107F100060423B6859687B685B6B5B030B431A43A9
:107F2000BB6F9A607B681B689B6803F00303012B9F
:107F300008D17B681B681B6803F00103012B01D18A
:107F4000012300E00023002B5CD1FB689B6803F059
:107F50000303012B07D1FB681B6803F00103012B0E
:107F600001D1012300E00023002B4BD1BB6F9B68A4
:107F700023F4716323F00F033A6811683A6892683A
:107F80000A431A43BB6F9A603CE0BB6F9B6823F4C3
:107F90006042BB6F9A607B681B689B6803F00303B9
:107FA000012B08D17B681B681B6803F00103012BC0
:107FB00001D1012300E00023002B23D1FB689B6843
:107FC00003F00303012B07D1FB681B6803F00103D7
:107FD000012B01D1012300E00023002B12D1BB6F44
:107FE0009B6823F4716323F00F03BA6F936009E079
:107FF0007B68DB6D43F020027B68DA65012387F83C
:108000007F3000E000BF7B68002283F8582097F89B
:108010007F3018468037BD4680BD00BF0000045049
:10802000000104500003045080B485B000AF7860B4
:108030007B6803F00703FB600C4BDB68BB60BA682E
:108040004FF6FF031340BB60FB681A02BB68134383
:1080500043F0BF6343F40033BB60044ABB68D360A2
:1080600000BF1437BD465DF8047B704700ED00E0AB
:1080700080B400AF044BDB681B0A03F0070318460B
:10808000BD465DF8047B704700ED00E080B483B02E
:1080900000AF0346FB71094997F907305B09FA798C
:1080A00002F01F02012000FA02F241F8232000BF73
:1080B0000C37BD465DF8047B704700BF00E100E06F
:1080C00080B483B000AF0346FB71094997F90730CC
:1080D0005B09FA7902F01F02012000FA02F2203354
:1080E00041F8232000BF0C37BD465DF8047B704784
:1080F00000E100E080B483B000AF03463960FB715B
:1081000097F90730002B0BDA0D49FB7903F00F03C9
:10811000043B3A68D2B21201D2B20B441A7609E09B
:10812000084997F907303A68D2B21201D2B20B442B
:1081300083F8002300BF0C37BD465DF8047B704711
:1081400000ED00E000E100E080B489B000AFF8602D
:10815000B9607A60FB6803F00703FB61FB69C3F158
:108160000703042B28BF0423BB61FB690433062BE0
:1081700002D9FB69033B00E000237B610122BB695C
:1081800002FA03F35A1EBB681A407B699A40012128
:108190007B6901FA03F3591E7B680B4013431846B1
:1081A0002437BD465DF8047B7047000080B400AF03
:1081B000BFF34F8F0549054BDB6803F4E062044BC6
:1081C0001343CB60BFF34F8F00BFFDE700ED00E02E
:1081D0000400FA0580B582B000AF78607B68013B8F
:1081E000B3F1807F01D301230FE00A4A7B68013B92
:1081F00053600F214FF0FF30FFF77CFF054B00224B
:108200009A60044B07221A60002318460837BD46BF
:1082100080BD00BF10E000E080B582B000AF7860A4
:108220007868FFF701FF00BF0837BD4680BD80B505
:1082300086B000AF0346B9607A60FB7300237B61B0
:10824000FFF716FF78617A68B9687869FFF77CFFF5
:10825000024697F90F3011461846FFF74BFF00BF53
:108260001837BD4680BD80B582B000AF0346FB71B4
:1082700097F907301846FFF709FF00BF0837BD46DA
:1082800080BD80B582B000AF0346FB7197F907301F
:108290001846FFF715FF00BF0837BD4680BD80B503
:1082A00000AFFFF783FF00BF80BD80B582B000AF95
:1082B00078607868FFF78EFF034618460837BD469A
:1082C00080BD000080B483B000AF78607B68042B71
:1082D00006D1094A084B1B6843F00403136005E00C
:1082E000054A054B1B6823F00403136000BF0C37DD
:1082F000BD465DF8047B704710E000E080B500AF3C
:1083000000F002F800BF80BD80B400AF00BFBD46E2
:108310005DF8047B7047000080B582B000AF7860E4
:108320007B68002B01D1012354E07B685B7FDBB2CB
:10833000002B05D17B6800221A7778680DF04AFF80
:108340007B6802225A777B681B79002B0CD17B68F3
:108350001B68224A5A617B681B687A6812689268B7
:1083600022F018029A600CE07B6899687B68DB68F1
:108370001A46786800F058F90346002B01D0012313
:1083800028E07B685B79002B05D17B681B684FF088
:10839000FF321A6104E07B681B687A6812691A610F
:1083A0007B681B687A681268926822F060017A68BC
:1083B00052690A439A607B681B687A6812689268FF
:1083C00022F080017A6892690A439A607B680122F0
:1083D0005A77002318460837BD4680BDB71DC10433
:1083E00080B586B000AFF860B9607A6000237B6129
:1083F00000233B61FB681B7F012B01D1022342E07C
:10840000FB6801221A77FB6802225A77FB681B6817
:10841000FA681268926842F001029A60FB681B6A6F
:10842000022B22D0032B02D0012B17D024E00023F3
:108430007B610AE0FB681B687A699200B9680A44AC
:1084400012681A607B6901337B617A697B689A42A2
:10845000F0D3FB681B681B683B610DE07A68B96864
:10846000F86800F014F8386106E07A68B968F868CE
:1084700000F09EF8386100BFFB6801225A77FB6864
:1084800000221A773B6918461837BD4680BD80B474
:1084900089B000AFF860B9607A600023FB61002307
:1084A000FB6122E0FB681B68FA699200B9680A4424
:1084B00012781106FA6992000132B8680244127803
:1084C00012041143FA6992000232B8680244127829
:1084D00012020A43F96989000331B8680144097836
:1084E0000A431A60FB690133FB617B689A08FB69E8
:1084F0009A42D7D87B6803F00303002B4FD07B68E8
:1085000003F00303012B08D1FB681B681946FB69C4
:108510009B00BA6813441B780B707B6803F003035D
:10852000022B16D1FB699B00BA6813441B789BB2DF
:108530001B029AB2FB699B000133B9680B441B789C
:108540009BB213437B83FB681B687B617B697A8BDF
:108550001A807B6803F00303032B20D1FB699B0087
:10856000BA6813441B789BB21B029AB2FB699B004A
:108570000133B9680B441B789BB213437B83FB68C0
:108580001B687B617B697A8B1A80FB681B681946C4
:10859000FB699B000233BA6813441B780B70FB68BD
:1085A0001B681B6818462437BD465DF8047B70477E
:1085B00080B487B000AFF860B9607A6000237B6157
:1085C00000237B6112E0FB681B687A699200B9683E
:1085D0000A4412881204796989000231B86801449A
:1085E00009880A431A607B6901337B617B685A08FA
:1085F0007B699A42E7D87B6803F00103002B09D01E
:10860000FB681B683B617B699B00BA6813441A884E
:108610003B691A80FB681B681B6818461C37BD46FF
:108620005DF8047B7047000080B487B000AFF8604D
:10863000B9607A601F237B6100BF01227B699A4089
:10864000BB681340002B04D17B695A1E7A61002B52
:10865000F3D17B68182B44D801A252F823F000BF55
:10866000E7860008E3860008E3860008E386000842
:10867000E3860008E3860008E3860008E386000836
:10868000D9860008E3860008E3860008E386000830
:10869000E3860008E3860008E3860008E386000816
:1086A000CF860008E3860008E3860008E38600081A
:1086B000E3860008E3860008E3860008E3860008F6
:1086C000C58600087B69062B0FD9012321E07B6951
:1086D000072B0CD901231CE07B690F2B09D901233F
:1086E00017E0012315E000BF04E000BF02E000BF77
:1086F00000E000BFFB681B68BA685A61FB681B6832
:10870000FA681268926822F018017A680A439A603F
:10871000002318461C37BD465DF8047B704700BF38
:1087200080B582B000AF78607B68002B01D1012357
:1087300014E07B681B79DBB2002B05D17B6800223B
:108740005A7178680DF014FC7B6802221A717B68FC
:1087500000221A617B6801221A710023184608372B
:10876000BD4680BD80B483B000AF786039607B685F
:108770005B79012B01D102233AE07B6801225A7117
:108780007B6802221A717B681B687A68126811681C
:1087900001203A6800FA02F20A431A603B68002B93
:1087A0000FD17B681B681B6803F03C033C2B18D17E
:1087B0007B681B687A681268526842F001025A604E
:1087C0000FE07B681B681B6803F47013B3F5701F20
:1087D00007D17B681B687A681268526842F002020F
:1087E0005A607B6801221A717B6800225A7100234B
:1087F00018460C37BD465DF8047B704780B483B0E3
:1088000000AF786039607B681B687A68126811680D
:1088100001203A6800FA02F2D2430A401A607B68EB
:1088200001221A71002318460C37BD465DF8047BFF
:10883000704780B487B000AFF860B9607A603B6081
:1088400000237B61FB681B687B61BB68002B05D143
:108850007A697B68134408337B6104E07A697B683A
:10886000134414337B617B691A463B681360002311
:1088700018461C37BD465DF8047B704780B588B04C
:1088800000AFF860B9607A600023FB610023BB6130
:1088900000237B61FB685B79012B01D10223EFE0B0
:1088A000FB6801225A71FB6802221A71BB681B68BF
:1088B000042B6CD17B68002B37D1FDF7B1FF7861B9
:1088C00011E0FDF7ADFF02467B69D31A012B0AD9EF
:1088D000FB681B6943F00802FB681A61FB6803220E
:1088E0001A710323CCE0FB681B685B6B03F4004345
:1088F000002BE6D10120FDF79FFFFB681B68BA68DB
:1089000092691A641EE0FDF78BFF02467B69D31A59
:10891000012B0AD9FB681B6943F00802FB681A6146
:10892000FB6803221A710323AAE0FB681B685B6BD8
:10893000002BE8DB0120FDF77FFFFB681B68BA68AE
:1089400092695A64FB681B68FA681268916C40F27D
:10895000FF307A6800FA02F2D2431140BA68D06957
:108960007A6800FA02F20A439A64FB681B68FA68A4
:108970001268D16CFF207A6800FA02F2D2431140EB
:10898000BA68106A7A6800FA02F20A43DA64BB68CD
:108990001B69012B19D1FB681B689B6BFB611F22B4
:1089A0007B6802FA03F3DB43FA691340FB61BB689F
:1089B0005B69BB61BA697B6802FA03F3FA69134326
:1089C000FB61FB681B68FA699A63FB681B68DB6BD9
:1089D000FB6107227B6802FA03F3DB43FA69134069
:1089E000FB61BB681A68BB689B681A43BB68DB689D
:1089F0001343BB61BA697B6802FA03F3FA69134354
:108A0000FB61FB681B68FA69DA63FB681B68FA683C
:108A1000126811684FF480407A6800FA02F2D2437B
:108A20000A401A60FB681B681B68FB6140F6FC7219
:108A30007B6802FA03F3DB43FA691340FB61BB680E
:108A40005B68BB61BA697B6802FA03F3FA69134396
:108A5000FB61FB681B68FA691A60FB681B68FA68AF
:108A600012681168C0207A6800FA02F2D2430A4004
:108A70001A60FB6801221A71FB6800225A710023F8
:108A800018462037BD4680BD80B485B000AF786001
:108A90000023FB607B68002B01D101239CE07B68F5
:108AA0001B681A464F4B9A420FD87B681B681A46C0
:108AB0004D4B13444D4AA2FB03231B099A007B68CC
:108AC0005A647B684A4A1A640EE07B681B681A463F
:108AD000484B1344454AA2FB03231B099A007B68B9
:108AE0005A647B68444A1A647B68022283F8252012
:108AF0007B681B681B68FB60FB6823F4FF4323F063
:108B00007003FB607B689A687B68DB681A437B684C
:108B10001B691A437B685B691A437B689B691A432C
:108B20007B68DB691A437B681B6A1343FA6813434B
:108B3000FB607B681B68FA681A607B689B68B3F50A
:108B4000804F31D07B681B6C294A934216D12B4948
:108B50002A4B1A687B685B6C0F2000FA03F3DB4337
:108B600013400B602548254B1A687B6859687B6861
:108B70005B6C01FA03F31343036015E02049204BBB
:108B80001A687B685B6C0F2000FA03F3DB43134029
:108B90000B601B481A4B1A687B6859687B685B6CD2
:108BA00001FA03F3134303607B680022DA627B68F7
:108BB00000221A637B6800225A637B6800229A6352
:108BC0007B680022DA637B68012283F825207B68BA
:108BD000002283F82420002318461437BD465DF890
:108BE000047B704707040240F8FFFDBFCDCCCCCC1E
:108BF00000000240F8FBFDBF00040240A800024054
:108C0000A804024080B586B000AFF860B9607A6011
:108C10003B600023FB75FB6893F82430012B01D1E6
:108C200002234BE0FB68012283F82420FB6893F8C1
:108C30002530DBB2012B3AD1FB68022283F82520D4
:108C4000FB680022DA63FB681B68FA681268126826
:108C500022F001021A603B687A68B968F86800F08F
:108C600045F9FB681B6B002B08D0FB681B68FA6892
:108C70001268126842F00E021A600FE0FB681B686F
:108C8000FA681268126822F004021A60FB681B6816
:108C9000FA681268126842F00A021A60FB681B68E0
:108CA000FA681268126842F001021A6005E0FB6877
:108CB000002283F824200223FB75FB7D1846183719
:108CC000BD4680BD80B485B000AF78600023FB73E3
:108CD0007B68002B01D1012320E07B681B687A6848
:108CE0001268126822F00E021A607B681B687A68AC
:108CF0001268126822F001021A607B681B6C7A68A5
:108D0000526C012101FA02F25A607B68012283F859
:108D100025207B68002283F82420FB7B184614372B
:108D2000BD465DF8047B704780B584B000AF7860C5
:108D30000023FB737B6893F82530DBB2022B05D050
:108D40007B680422DA630123FB7327E07B681B68DE
:108D50007A681268126822F00E021A607B681B683B
:108D60007A681268126822F001021A607B681B6C34
:108D70007A68526C012101FA02F25A607B68012282
:108D800083F825207B68002283F824207B689B6B76
:108D9000002B03D07B689B6B78689847FB7B184659
:108DA0001037BD4680BD80B584B000AF78607B6869
:108DB0001B6C1B68FB607B681B681B68BB607B6867
:108DC0005B6C04229A40FB681340002B24D0BB68E4
:108DD00003F00403002B1FD07B681B681B6803F0A3
:108DE0002003002B07D17B681B687A681268126821
:108DF00022F004021A607B681B6C7A68526C0421B2
:108E000001FA02F25A607B681B6B002B69D07B6809
:108E10001B6B7868984764E07B685B6C02229A4021
:108E2000FB681340002B2CD0BB6803F00203002B1F
:108E300027D07B681B681B6803F02003002B0BD135
:108E40007B681B687A681268126822F00A021A604E
:108E50007B68012283F825207B681B6C7A68526C42
:108E6000022101FA02F25A607B68002283F8242072
:108E70007B68DB6A002B34D07B68DB6A78689847B4
:108E80002FE07B685B6C08229A40FB681340002B44
:108E900028D0BB6803F00803002B23D07B681B6835
:108EA0007A681268126822F00E021A607B681B6CE6
:108EB0007A68526C012101FA02F25A607B68012241
:108EC000DA637B68012283F825207B68002283F81F
:108ED00024207B685B6B002B04D07B685B6B78681D
:108EE000984700BF00BF1037BD4680BD80B485B035
:108EF00000AFF860B9607A603B60FB681B6CFA6891
:108F0000526C012101FA02F25A60FB681B683A6850
:108F10005A60FB689B68102B08D1FB681B687A6855
:108F20009A60FB681B68BA68DA6007E0FB681B6838
:108F3000BA689A60FB681B687A68DA6000BF143709
:108F4000BD465DF8047B704780B586B000AFF86021
:108F5000B960C7E900230123FB7500233B612F4B58
:108F60001B78012B01D1022353E02C4B01221A70F4
:108F70004CF2503000F088F80346FB75FB7D002B67
:108F800043D1264B00225A60254B1B6803F48063B3
:108F9000002B09D0224A224B1B6823F48063136004
:108FA0001E4B02221A7702E01C4B00221A77FB6844
:108FB000002B07D1D7E90023B86800F095F9012309
:108FC0003B6110E0FB68012B02D0FB68022B0AD149
:108FD0003B681946B86800F0A7F9FB68022B02D17C
:108FE0004FF480233B614CF2503000F04DF80346C3
:108FF000FB753B69002B06D00949094B5A693B694F
:10900000DB4313404B6100F0C7FA044B00221A7097
:10901000FB7D18461837BD4680BD00BF1085002077
:109020000020024080B483B000AF0023FB710B4BE3
:109030005B69002B0BDA094B094A9A60074B094A16
:109040009A60064B5B69002B01DA0123FB71FB7907
:1090500018460C37BD465DF8047B7047002002407F
:1090600023016745AB89EFCD80B400AF054A054BBE
:109070005B6943F00043536100231846BD465DF829
:10908000047B70470020024080B584B000AF786058
:10909000FDF7C6FBF8600DE07B68B3F1FF3F09D038
:1090A000FDF7BEFB0246FB68D21A7B689A4201D3E9
:1090B000032362E0334B1B6903F48033B3F5803F35
:1090C000EAD0304B1B6903F00203022B47D02D4B33
:1090D0001B6903F00803082B41D02A4B1B6903F0DE
:1090E0001003102B3BD0274B1B6903F02003202BD0
:1090F00035D0244B1B6903F04003402B2FD0214B6C
:109100001B6903F08003802B29D01E4B1B6903F4DD
:109110008073B3F5807F22D01A4B1B6903F4007370
:10912000B3F5007F1BD0174B1B6903F48043B3F5E5
:10913000804F14D0134B1B6903F40043B3F5004F69
:109140000DD0104B9B6903F00043B3F1004F06D0E4
:109150000C4B1B6903F40033B3F5003F03D100F05F
:1091600013F8012309E0074B1B6903F00103012BEE
:1091700002D1044B01221A61002318461037BD4664
:1091800080BD00BF0020024080B400AF544B1B697B
:1091900003F00203022B05D1524B5B6843F001033D
:1091A000504A53604E4B1B6903F00803082B05D14E
:1091B0004C4B5B6843F002034A4A5360484B1B69BF
:1091C00003F01003102B05D1464B5B6843F00403FA
:1091D000444A5360424B1B6903F02003202B05D106
:1091E000404B5B6843F008033E4A53603C4B1B69AD
:1091F00003F04003402B05D13A4B5B6843F010036A
:10920000384A5360364B1B6903F08003802B05D12D
:10921000344B5B6843F02003324A5360304B1B6988
:1092200003F48073B3F5807F05D12E4B5B6843F068
:1092300040032C4A53602A4B1B6903F40073B3F5B7
:10924000007F05D1274B5B6843F08003254A5360BC
:10925000234B1B6903F48043B3F5804F05D1214BA9
:109260005B6843F480731F4A53601D4B1B6903F412
:109270000043B3F5004F05D11A4B5B6843F400730C
:10928000184A5360164B9B6903F00043B3F1004F3B
:1092900005D1144B5B6843F48063124A5360104B52
:1092A0001B6903F40033B3F5003F09D10D4B5B6834
:1092B00043F400630B4A5360094B4FF400321A61C8
:1092C000074A074B9B6943F000439361044B4CF200
:1092D000FA321A6100BFBD465DF8047B704700BFDB
:1092E0000020024010850020F0B484B000AFF86088
:1092F000C7E900230B4A0B4B5B6943F00103536141
:10930000FB683A681A60FB6804331A4697E818004D
:10931000250000262B46136000BF1037BD46F0BC69
:10932000704700BF0020024080B487B000AF786073
:1093300039604023FB757B683B613B68FB600E4AEC
:109340000D4B5B6943F48023536172B63B691A1D70
:109350003A61FA68111DF96012681A60FB7D013BE1
:10936000FB75FB7D002BF1D162B600BF1C37BD46FB
:109370005DF8047B704700BF0020024080B584B0D8
:1093800000AF786039600123FB730023BB604C4B56
:109390001B78012B01D102238DE0494B01221A7069
:1093A0004CF25030FFF770FE0346FB73FB7B002B43
:1093B0007DD1434B00225A60424B1B6803F400737B
:1093C000002B19D03F4A3F4B1B6823F400731360F6
:1093D0003C4B1B6803F48063002B09D0394A394B9E
:1093E0001B6823F480631360354B03221A7716E061
:1093F000334B01221A7712E0324B1B6803F480636F
:10940000002B09D02F4A2F4B1B6823F48063136075
:109410002B4B02221A7702E0294B00221A777B6835
:109420001B68012B13D17B685B68184600F04CF871
:109430004CF25030FFF728FE0346FB73214A214BC4
:109440005B6923F4004323F0040353612DE03B6880
:109450004FF0FF321A607B689B68BB601DE07B6841
:109460005B681946B86800F057F84CF25030FFF7C7
:109470000BFE0346FB73134A124B5B6923F4FF6335
:1094800023F002035361FB7B002B03D03B68BA68D7
:109490001A600AE0BB680133BB607B689A687B682E
:1094A000DB681A44BB689A42D9D800F075F8044BBF
:1094B00000221A70FB7B18461037BD4680BD00BFE6
:1094C000108500200020024080B483B000AF786097
:1094D0007B6803F00103002B05D00E4A0D4B5B693E
:1094E00043F0040353617B6803F00203002B05D0B3
:1094F000084A084B5B6943F400435361054A054B36
:109500005B6943F48033536100BF0C37BD465DF89F
:10951000047B70470020024080B485B000AF7860C3
:1095200039603B6803F00103002B06D0194A194B40
:109530005B6923F40063536105E0164A154B5B69D0
:1095400043F4006353611348124B5B6923F4FF62D9
:109550004FF4FF63FB60FB6893FAA3F3BB60BB6847
:10956000B3FA83F3796801FA03F313434361094AB9
:10957000084B5B6943F002035361064A054B5B6984
:1095800043F48033536100BF1437BD465DF8047B5C
:10959000704700BF0020024080B400AF1F4B1B7F0C
:1095A000DBB2012B04D01D4B1B7FDBB2032B11D18F
:1095B0001B4A1B4B1B6843F400631360184A184B8B
:1095C0001B6823F400631360154A154B1B6843F4B2
:1095D00000731360114B1B7FDBB2022B04D00F4BC7
:1095E0001B7FDBB2032B11D10D4A0D4B1B6843F4DB
:1095F000805313600A4A0A4B1B6823F4805313609C
:10960000074A074B1B6843F480631360034B002237
:109610001A7700BFBD465DF8047B704710850020B7
:109620000020024080B487B000AF7860396000232A
:109630007B610023FB6000233B6166E13B681A68A5
:1096400001217B6901FA03F31340FB60FB68002BE7
:1096500000F058813B685B68022B03D03B685B6875
:10966000122B23D17B69DA087B68083253F8223049
:109670003B617B6903F007039B000F2202FA03F3AF
:10968000DB433A6913403B613B681A697B6903F02D
:1096900007039B0002FA03F33A6913433B617B69BA
:1096A000DA087B680832396943F822107B681B6846
:1096B0003B617B695B00032202FA03F3DB433A69F7
:1096C00013403B613B685B6803F003027B695B000E
:1096D00002FA03F33A6913433B617B683A691A6003
:1096E0003B685B68012B0BD03B685B68022B07D0A3
:1096F0003B685B68112B03D03B685B68122B30D151
:109700007B689B683B617B695B00032202FA03F381
:10971000DB433A6913403B613B68DA687B695B0075
:1097200002FA03F33A6913433B617B683A699A6032
:109730007B685B683B6101227B6902FA03F3DB43D0
:109740003A6913403B613B685B681B0903F0010207
:109750007B6902FA03F33A6913433B617B683A6918
:109760005A607B68DB683B617B695B00032202FA1D
:1097700003F3DB433A6913403B613B689A687B69BA
:109780005B0002FA03F33A6913433B617B683A6971
:10979000DA603B685B6803F08053002B00F0B28016
:1097A000614A614B1B6E43F0010313665E4B1B6EF7
:1097B00003F00103BB60BB685C4A7B699B08023312
:1097C00052F823303B617B6903F003039B000F22B7
:1097D00002FA03F3DB433A6913403B617B68B3F160
:1097E000904F2BD07B68524A934225D07B68514AD8
:1097F00093421FD07B68504A934219D07B684F4AEE
:10980000934213D07B684E4A93420DD07B684D4AF9
:10981000934207D07B684C4A934201D107230EE064
:1098200008230CE006230AE0052308E0042306E0F1
:10983000032304E0022302E0012300E000237A690D
:1098400002F00302920093403A6913433B613749A7
:109850007B699B0802333A6941F823203B4B1B6824
:109860003B61FB68DB433A6913403B613B685B68E3
:1098700003F48033002B03D03A69FB6813433B6148
:10988000324A3B691360314B5B683B61FB68DB43E9
:109890003A6913403B613B685B6803F40033002B7B
:1098A00003D03A69FB6813433B61284A3B69536024
:1098B000264B9B683B61FB68DB433A6913403B6185
:1098C0003B685B6803F48013002B03D03A69FB68A4
:1098D00013433B611D4A3B6993601C4BDB683B6152
:1098E000FB68DB433A6913403B613B685B6803F408
:1098F0000013002B03D03A69FB6813433B61134A02
:109900003B69D3607B6901337B613B681A687B6983
:1099100022FA03F3002B7FF491AE00BF1C37BD4643
:109920005DF8047B704700BF00100240000001405A
:109930000004004800080048000C004800100048DF
:109940000014004800180048001C004800040140B2
:1099500080B487B000AF7860396000237B6100235A
:109960003B610023FB60C9E001227B699A403B68B0
:1099700013403B613B69002B00F0BD807B681A6897
:109980007B695B00032101FA03F31A437B681A60C9
:109990007B69DA087B69D9087B68083153F82110A4
:1099A0007B6903F007039B000F2000FA03F3DB43FE
:1099B00019407B68083243F822107B689A687B69FB
:1099C0005B00032101FA03F3DB431A407B689A60D2
:1099D0007B685A6801217B6901FA03F3DB431A4073
:1099E0007B685A607B68DA687B695B00032101FA57
:1099F00003F3DB431A407B68DA60474A7B699B08C4
:109A0000023352F82330FB607B6903F003039B00B1
:109A10000F2202FA03F3FA681340FB607B68B3F18C
:109A2000904F2BD07B683D4A934225D07B683C4ABF
:109A300093421FD07B683B4A934219D07B683A4AD5
:109A4000934213D07B68394A93420DD07B68384AE1
:109A5000934207D07B68374A934201D107230EE037
:109A600008230CE006230AE0052308E0042306E0AF
:109A7000032304E0022302E0012300E000237A69CB
:109A800002F00302920003FA02F2FB689A4232D11A
:109A90007B6903F003039B000F2202FA03F3FB60D0
:109AA0001D487B699B081C497A699208023251F86B
:109AB0002210FA68D2430A40023340F823201E499C
:109AC0001D4B1A683B69DB4313400B601A491A4B64
:109AD0005A683B69DB4313404B601749164B9A6841
:109AE0003B69DB4313408B601349134BDA683B69D6
:109AF000DB431340CB607B6901337B613A687B6950
:109B000022FA03F3002B7FF42FAF00BF1C37BD46B2
:109B10005DF8047B704700BF00000140000400486E
:109B200000080048000C00480010004800140048DD
:109B300000180048001C00480004014080B485B0B3
:109B400000AF78600B467B807B681A697B88134086
:109B5000002B02D00123FB7301E00023FB73FB7B8E
:109B600018461437BD465DF8047B704780B483B057
:109B700000AF78600B467B8013467B707B78002BB0
:109B800003D07A887B689A6102E07A887B689A625F
:109B900000BF0C37BD465DF8047B704780B582B0CE
:109BA00000AF0346FB80084B5A69FB881340002B2B
:109BB00006D0054AFB885361FB88184606F0BFF9BA
:109BC00000BF0837BD4680BD0004014080B582B0AB
:109BD00000AF78607B68002B01D1012380E07B68B7
:109BE00093F84130DBB2002B06D17B68002283F86A
:109BF000402078680CF0E6F97B68242283F8412045
:109C00007B681B687A681268126822F001021A6089
:109C10007B681B687A68526822F070621A617B6800
:109C20001B687A681268926822F400429A607B6826
:109C3000DB68012B07D17B681B687A68926842F465
:109C400000429A6006E07B681B687A68926842F47A
:109C500004429A607B68DB68022B04D17B681B6836
:109C60004FF400625A607B681A687B681B685B6807
:109C700043F0007343F4004353607B681B687A68C9
:109C80001268D26822F40042DA607B681B687A6846
:109C900011697A68526911437A68926912020A431B
:109CA000DA607B681B687A68D1697A68126A0A434D
:109CB0001A607B681B687A681268126842F00102B9
:109CC0001A607B6800225A647B68202283F8412056
:109CD0007B6800221A637B68002283F842200023FD
:109CE00018460837BD4680BD80B588B002AFF86021
:109CF0007A601A460B467B8113463B8100237B61C9
:109D0000FB6893F84130DBB2202B40F0E480FB6825
:109D100093F84030012B01D10223DDE0FB680122E2
:109D200083F84020FCF77CFD78617B690093192360
:109D300001224FF40041F86800F0FCF90346002BC3
:109D400001D00323C8E0FB68212283F84120FB688F
:109D5000102283F84220FB6800225A64FB687A686C
:109D60005A62FB683A895A85FB6800225A63FB688D
:109D70005B8D9BB2FF2B0ED9FB68FF221A85FB6817
:109D80001B8DDAB27989564B00934FF08073F868D7
:109D900000F050FB70E0FB685B8D9AB2FB681A859F
:109DA000FB681B8DDAB279894D4B00934FF000733D
:109DB000F86800F03FFB5FE07A69396AF86800F004
:109DC000F3F90346002B07D0FB685B6C042B01D131
:109DD000012381E003237FE0FB681A68FB685B6A6C
:109DE000581CF96848621B789362FB685B8D9BB2D4
:109DF000013B9AB2FB685A85FB681B8D013B9AB206
:109E0000FB681A85FB681B8D002B35D1FB685B8DC9
:109E10009BB2002B30D07B6900933B6A00228021EB
:109E2000F86800F087F90346002B01D0032353E0C4
:109E3000FB685B8D9BB2FF2B0ED9FB68FF221A8556
:109E4000FB681B8DDAB27989002300934FF0807391
:109E5000F86800F0EFFA0FE0FB685B8D9AB2FB68E0
:109E60001A85FB681B8DDAB27989002300934FF0C5
:109E70000073F86800F0DEFAFB685B8D9BB2002B84
:109E80009AD17A69396AF86800F0CEF90346002B56
:109E900007D0FB685B6C042B01D101231CE003237A
:109EA0001AE0FB681B682022DA61FB681A68FB680D
:109EB0001B6859680B4B0B405360FB68202283F8EA
:109EC0004120FB68002283F84220FB68002283F8CF
:109ED0004020002300E0022318461837BD4680BD0D
:109EE0000020008000E800FE80B588B002AFF86076
:109EF0007A601A460B467B8113463B8100237B61C7
:109F0000FB6893F84130DBB2202B40F0E580FB6822
:109F100093F84030012B01D10223DEE0FB680122DF
:109F200083F84020FCF77CFC78617B69009319235F
:109F300001224FF40041F86800F0FCF80346002BC2
:109F400001D00323C9E0FB68222283F84120FB688B
:109F5000102283F84220FB6800225A64FB687A686A
:109F60005A62FB683A895A85FB6800225A63FB688B
:109F70005B8D9BB2FF2B0ED9FB68FF221A85FB6815
:109F80001B8DDAB27989574B00934FF08073F868D4
:109F900000F050FA71E0FB685B8D9AB2FB681A859D
:109FA000FB681B8DDAB279894E4B00934FF000733A
:109FB000F86800F03FFA60E07A69396AF86800F002
:109FC0006FF90346002B07D0FB685B6C042B01D1B3
:109FD000012382E0032380E0FB685B6A591CFA6876
:109FE0005162FA681268526AD2B21A70FB681B8D0D
:109FF000013B9AB2FB681A85FB685B8D9BB2013B03
:10A000009AB2FB685A85FB681B8D002B35D1FB6823
:10A010005B8D9BB2002B30D07B6900933B6A0022A2
:10A020008021F86800F086F80346002B01D0032356
:10A0300053E0FB685B8D9BB2FF2B0ED9FB68FF22C0
:10A040001A85FB681B8DDAB27989002300934FF0E3
:10A050008073F86800F0EEF90FE0FB685B8D9AB250
:10A06000FB681A85FB681B8DDAB27989002300939F
:10A070004FF00073F86800F0DDF9FB685B8D9BB270
:10A08000002B99D17A69396AF86800F0CDF8034657
:10A09000002B07D0FB685B6C042B01D101231CE073
:10A0A00003231AE0FB681B682022DA61FB681A6848
:10A0B000FB681B6859680C4B0B405360FB682022FF
:10A0C00083F84120FB68002283F84220FB680022CD
:10A0D00083F84020002300E0022318461837BD46CD
:10A0E00080BD00BF0024008000E800FE80B483B083
:10A0F00000AF78607B681B689B6903F00203022B4A
:10A1000003D17B681B6800229A627B681B689B698D
:10A1100003F00103012B07D07B681B687A68126883
:10A12000926942F001029A6100BF0C37BD465DF8AA
:10A13000047B704780B584B000AFF860B9603B60C5
:10A140001346FB711CE03B68B3F1FF3F18D03B683E
:10A15000002B07D0FCF764FB0246BB69D21A3B68B0
:10A160009A420DD9FB68202283F84120FB68002227
:10A1700083F84220FB68002283F8402003230FE08D
:10A18000FB681B689A69BB681A40BB689A420CBF9F
:10A1900001230023DBB21A46FB799A42D3D0002375
:10A1A00018461037BD4680BD80B584B000AFF8605A
:10A1B000B9607A602CE07A68B968F86800F0DCF879
:10A1C0000346002B01D001232AE0BB68B3F1FF3F17
:10A1D0001ED0BB68002B07D0FCF722FB02467B6831
:10A1E000D21ABB689A4213D9FB685B6C43F0200219
:10A1F000FB685A64FB68202283F84120FB68002238
:10A2000083F84220FB68002283F84020032307E004
:10A21000FB681B689B6903F00203022BCBD1002370
:10A2200018461037BD4680BD80B584B000AFF860D9
:10A23000B9607A6028E07A68B968F86800F09CF83C
:10A240000346002B01D0012326E0BB68002B07D07A
:10A25000FCF7E6FA02467B68D21ABB689A4213D929
:10A26000FB685B6C43F02002FB685A64FB682022A9
:10A2700083F84120FB68002283F84220FB6800221B
:10A2800083F84020032307E0FB681B689B6903F009
:10A290002003202BCFD1002318461037BD4680BDA8
:10A2A00080B584B000AFF860B9607A6055E07A6834
:10A2B000B968F86800F060F80346002B01D001236C
:10A2C00053E0FB681B689B6903F02003202B29D116
:10A2D000FB681B689B6903F00403042B05D1FB6832
:10A2E0001B8D002B01D000233FE0FB681B68202260
:10A2F000DA61FB681A68FB681B6859681D4B0B40E4
:10A300005360FB6800225A64FB68202283F84120D6
:10A31000FB68002283F84220FB68002283F840207B
:10A32000012322E0BB68002B07D0FCF779FA024634
:10A330007B68D21ABB689A420FD9FB685B6C43F00A
:10A340002002FB685A64FB68202283F84120FB68E6
:10A35000002283F84020032307E0FB681B689B6909
:10A3600003F00403042BA2D1002318461037BD4686
:10A3700080BD00BF00E800FE80B584B000AFF8608B
:10A38000B9607A60FB681B689B6903F01003102BAF
:10A3900048D11CE0BB68B3F1FF3F18D0BB68002B6D
:10A3A00007D0FCF73DFA02467B68D21ABB689A4296
:10A3B0000DD9FB68202283F84120FB68002283F836
:10A3C0004220FB68002283F8402003232BE0FB6837
:10A3D0001B689B6903F02003202BDBD1FB681B6803
:10A3E0001022DA61FB681B682022DA61F868FFF747
:10A3F0007DFEFB681A68FB681B6859680C4B0B40B4
:10A400005360FB6804225A64FB68202283F84120D1
:10A41000FB68002283F84220FB68002283F840207A
:10A42000012300E0002318461037BD4680BD00BF61
:10A4300000E800FE80B485B000AFF8607B600B469A
:10A440007B8113467B72FB681A68FB681B6859683E
:10A45000BB695B0D03F480600B4B0343DB43194086
:10A460007B89C3F309007B7A1B0403F47F03184341
:10A470007B681843BB6903430B43536000BF143729
:10A48000BD465DF8047B7047FF63FF0380B483B073
:10A4900000AF786039607B6893F84130DBB2202BE5
:10A4A00038D17B6893F84030012B01D1022332E090
:10A4B0007B68012283F840207B68242283F84120B6
:10A4C0007B681B687A681268126822F001021A60C1
:10A4D0007B681B687A681268126822F480521A60DE
:10A4E0007B681B687A68126811683A680A431A60C8
:10A4F0007B681B687A681268126842F001021A6071
:10A500007B68202283F841207B68002283F840206A
:10A51000002300E0022318460C37BD465DF8047B9B
:10A52000704780B485B000AF786039600023FB606D
:10A530007B6893F84130DBB2202B39D17B6893F8EC
:10A540004030012B01D1022333E07B68012283F8E4
:10A5500040207B68242283F841207B681B687A684E
:10A560001268126822F001021A607B681B681B687F
:10A57000FB60FB6823F47063FB603B681B02FA68B6
:10A580001343FB607B681B68FA681A607B681B6872
:10A590007A681268126842F001021A607B68202211
:10A5A00083F841207B68002283F84020002300E0EC
:10A5B000022318461437BD465DF8047B704700003F
:10A5C00080B400AF054A054B1B6843F480731360E9
:10A5D00000BFBD465DF8047B704700BF00700040BF
:10A5E00080B400AF094A094B1B6823F0070343F00E
:10A5F00003031360064A064B1B6943F0040313610F
:10A6000030BF00BFBD465DF8047B7047007000405E
:10A6100000ED00E080B400AF044B1B6803F4C0639E
:10A620001846BD465DF8047B704700BF00700040CF
:10A6300080B485B000AF78600023FB607B68B3F521
:10A64000007F2FD1224B1B6803F4C063B3F5007F5A
:10A6500037D01F4A1E4B1B6823F4C06343F40073BA
:10A6600013601C4B1B681C4AA2FB03239B0C322269
:10A6700002FB03F3FB6002E0FB68013BFB60FB684D
:10A68000002B06D0124B5B6903F48063B3F5806F37
:10A69000F2D00F4B5B6903F48063B3F5806F10D188
:10A6A00003230FE00A4B1B6803F4C063B3F5806F0C
:10A6B00007D0074A064B1B6823F4C06343F480634A
:10A6C0001360002318461437BD465DF8047B7047BD
:10A6D00000700040E009002083DE1B4380B400AF1F
:10A6E000054A054B5B6843F40073536000BFBD46E9
:10A6F0005DF8047B704700BF0070004080B483B0F9
:10A7000000AF786039607B68082B00F2A18001A25D
:10A7100052F823F039A700085DA700087DA70008BC
:10A7200099A70008B5A70008D1A70008EDA7000861
:10A7300009A800082DA800084A494A4B1A6A3B6834
:10A7400023F4804313430B624649464B5A6A3B68E5
:10A7500023F42043DB4313404B627BE04149414BF0
:10A760009A6A3B6813438B623E493E4BDA6A3B6808
:10A7700023F01003DB431340CB626BE03949394BC4
:10A780001A6B3B6813430B633649364B5A6B3B6875
:10A79000DB4313404B635DE03249324B9A6B3B68BD
:10A7A00013438B632F492F4BDA6B3B68DB4313401A
:10A7B000CB634FE02B492B4B1A6C3B6813430B6464
:10A7C0002849284B5A6C3B68DB4313404B6441E0FB
:10A7D0002449244B9A6C3B6813438B642149214BD9
:10A7E000DA6C3B68DB431340CB6433E01D491D4BFF
:10A7F0001A6D3B6813430B651A491A4B5A6D3B6837
:10A80000DB4313404B6525E01649164B9A6D3B68B8
:10A810009BB213438B651348124BDA6D39684FF6C0
:10A82000F7730B40DB431340C36513E00D490D4B39
:10A830001A6E3B68C3F30B0313430B660949094BBC
:10A840005A6E3B68C3F30B03DB4313404B6601E0D6
:10A85000012300E0002318460C37BD465DF8047B59
:10A86000704700BF0070004080B483B000AF7860D4
:10A8700039607B68082B62D801A252F823F000BF30
:10A88000A5A80008B9A80008C9A80008D9A8000808
:10A89000E9A80008F9A8000809A9000819A90008F2
:10A8A0002BA900082A492A4B1A6A3B6823F48043E3
:10A8B000DB4313400B6244E02549254B9A6A3B6811
:10A8C000DB4313408B623CE02149214B1A6B3B6810
:10A8D000DB4313400B6334E01D491D4B9A6B3B680F
:10A8E000DB4313408B632CE01949194B1A6C3B680E
:10A8F000DB4313400B6424E01549154B9A6C3B680D
:10A90000DB4313408B641CE01149114B1A6D3B680B
:10A91000DB4313400B6514E00D490D4B9A6D3B680A
:10A920009BB2DB4313408B650BE00949084B1A6E61
:10A930003B68C3F30B03DB4313400B6601E00123C9
:10A9400000E0002318460C37BD465DF8047B7047D5
:10A950000070004080B483B000AF786039607B68DD
:10A96000082B00F2A18001A252F823F091A900085F
:10A97000B5A90008D5A90008F1A900080DAA00088A
:10A9800029AA000845AA000861AA000885AA0008AB
:10A990004A494A4B5A6A3B6823F4204313434B62AB
:10A9A0004649464B1A6A3B6823F48043DB43134015
:10A9B0000B627BE04149414BDA6A3B6823F01003AC
:10A9C0001343CB623D493D4B9A6A3B68DB431340DE
:10A9D0008B626BE03949394B5A6B3B6813434B63CD
:10A9E0003649364B1A6B3B68DB4313400B635DE023
:10A9F0003249324BDA6B3B681343CB632F492F4B01
:10AA00009A6B3B68DB4313408B634FE02B492B4B26
:10AA10005A6C3B6813434B642849284B1A6C3B68BB
:10AA2000DB4313400B6441E02449244BDA6C3B6860
:10AA30001343CB642149214B9A6C3B68DB431340A1
:10AA40008B6433E01D491D4B5A6D3B6813434B65C6
:10AA50001A491A4B1A6D3B68DB4313400B6525E01E
:10AA60001648164BDA6D39684FF6F7730B401343EF
:10AA7000C3651249114B9A6D3B689BB2DB4313408F
:10AA80008B6513E00D490D4B5A6E3B68C3F30B0306
:10AA900013434B660949094B1A6E3B68C3F30B031A
:10AAA000DB4313400B6601E0012300E0002318465E
:10AAB0000C37BD465DF8047B704700BF0070004056
:10AAC00080B400AF054A054B9B6843F480639360F4
:10AAD00000BFBD465DF8047B704700BF00700040BA
:10AAE00080B400AF054A054B9B6823F480639360F4
:10AAF00000BFBD465DF8047B704700BF007000409A
:10AB000080B400AF054A054B9B6843F480739360A3
:10AB100000BFBD465DF8047B704700BF0070004079
:10AB200080B586B000AF786000233B617B681B680E
:10AB300003F01003002B00F0D080A14B9B6803F0C2
:10AB40000C03002B79D19E4B1B6803F00203002BF2
:10AB500005D07B689B69002B01D101237EE37B68D4
:10AB60001A6A974B1B6803F00803002B04D0944B20
:10AB70001B6803F0F00305E0914BD3F894301B09F8
:10AB800003F0F0039A4223D97B681B6A184600F051
:10AB900067FD0346002B01D001235FE3884A884B01
:10ABA0001B6843F0080313608549854B1B6823F03D
:10ABB000F0027B681B6A13430B608149804B5B6822
:10ABC00023F47F427B68DB691B0213434B6022E066
:10ABD0007B4A7B4B1B6843F0080313607849784B32
:10ABE0001B6823F0F0027B681B6A13430B607449F7
:10ABF000734B5B6823F47F427B68DB691B02134362
:10AC00004B607B681B6A184600F02AFD0346002B48
:10AC100001D0012322E300F03FFC0146684B9B6812
:10AC20001B0903F00F03674AD35C21FA03F3664A5A
:10AC300013600020FBF7CAFD4FE07B689B69002B87
:10AC400032D05F4A5E4B1B6843F001031360FBF791
:10AC5000E7FD386108E0FBF7E3FD02463B69D31AE4
:10AC6000022B01D90323F9E2554B1B6803F00203C1
:10AC7000002BF0D0524A524B1B6843F0080313607C
:10AC80004F494F4B1B6823F0F0027B681B6A13434C
:10AC90000B604B494A4B5B6823F47F427B68DB695E
:10ACA0001B0213434B6018E0454A454B1B6823F0D9
:10ACB00001031360FBF7B4FD386108E0FBF7B0FD5A
:10ACC00002463B69D31A022B01D90323C6E23C4B4F
:10ACD0001B6803F00203002BF0D17B681B6803F0B4
:10ACE0000103002B7AD0364B9B6803F00C03082B32
:10ACF0000BD0334B9B6803F00C030C2B11D1304B62
:10AD0000DB6803F00303032B0BD12D4B1B6803F40B
:10AD10000033002B61D07B685B68002B5DD1012381
:10AD20009CE27B685B68B3F5803F06D1244A244BE4
:10AD30001B6843F4803313601DE07B685B68B3F5E8
:10AD4000A02F0CD11E4A1E4B1B6843F480231360B6
:10AD50001B4A1B4B1B6843F4803313600BE0184AFB
:10AD6000174B1B6823F480331360154A144B1B6880
:10AD700023F4802313607B685B68002B13D0FBF700
:10AD80004FFD386108E0FBF74BFD02463B69D31AE3
:10AD9000642B01D9032361E2094B1B6803F40033E0
:10ADA000002BF0D01AE0FBF73BFD38610EE0FBF71B
:10ADB00037FD02463B69D31A642B07D903234DE2C2
:10ADC0000010024078040208E0090020A94B1B682B
:10ADD00003F40033002BEAD100E000BF7B681B685E
:10ADE00003F00203002B69D0A24B9B6803F00C0315
:10ADF000042B0BD09F4B9B6803F00C030C2B1CD136
:10AE00009C4BDB6803F00303022B16D1994B1B68A4
:10AE100003F48063002B05D07B68DB68002B01D135
:10AE200001231BE29349934B5B6823F0FE427B684E
:10AE30001B691B0613434B6040E07B68DB68002BFB
:10AE400023D08C4A8B4B1B6843F480731360FBF751
:10AE5000E7FC386108E0FBF7E3FC02463B69D31AE4
:10AE6000022B01D90323F9E1824B1B6803F48063B1
:10AE7000002BF0D07F497F4B5B6823F0FE427B685C
:10AE80001B691B0613434B6018E07A4A794B1B6819
:10AE900023F480731360FBF7C3FC386108E0FBF711
:10AEA000BFFC02463B69D31A022B01D90323D5E12B
:10AEB000704B1B6803F48063002BF0D17B681B6828
:10AEC00003F00803002B3CD07B685B69002B1CD08F
:10AED000684A684BD3F8943043F00103C2F89430C9
:10AEE000FBF79EFC386108E0FBF79AFC02463B69E1
:10AEF000D31A022B01D90323B0E15E4BD3F894306F
:10AF000003F00203002BEFD01BE05A4A594BD3F851
:10AF1000943023F00103C2F89430FBF781FC3861D0
:10AF200008E0FBF77DFC02463B69D31A022B01D9EE
:10AF3000032393E14F4BD3F8943003F00203002B2B
:10AF4000EFD17B681B6803F00403002B00F0A680A0
:10AF50000023FB75474B9B6D03F08053002B0DD1F5
:10AF6000444A444B9B6D43F080539365414B9B6D2A
:10AF700003F08053FB60FB680123FB753E4B1B68AD
:10AF800003F48073002B18D13B4A3B4B1B6843F4FE
:10AF900080731360FBF744FC386108E0FBF740FC6A
:10AFA00002463B69D31A022B01D9032356E1324BE7
:10AFB0001B6803F48073002BF0D07B689B68012B27
:10AFC00008D12C4A2B4BD3F8903043F00103C2F840
:10AFD000903024E07B689B68052B10D1254A254BD7
:10AFE000D3F8903043F00403C2F89030214A214B4B
:10AFF000D3F8903043F00103C2F890300FE01D4ABF
:10B000001C4BD3F8903023F00103C2F89030194A5A
:10B01000184BD3F8903023F00403C2F890307B68CB
:10B020009B68002B16D0FBF7FBFB38610AE0FBF7AF
:10B03000F7FB02463B69D31A41F28832934201D9A9
:10B0400003230BE10B4BD3F8903003F00203002BEA
:10B05000EDD01AE0FBF7E4FB38610FE0FBF7E0FB13
:10B0600002463B69D31A41F28832934206D9032340
:10B07000F4E000BF0010024000700040794BD3F8AC
:10B08000903003F00203002BE8D1FB7D012B05D1AA
:10B09000744A744B9B6D23F0805393657B681B68E7
:10B0A00003F02003002B3CD07B685B6A002B1CD094
:10B0B0006C4A6C4BD3F8983043F00103C2F89830D7
:10B0C000FBF7AEFB386108E0FBF7AAFB02463B69E1
:10B0D000D31A022B01D90323C0E0624BD3F8983076
:10B0E00003F00203002BEFD01BE05E4A5D4BD3F868
:10B0F000983023F00103C2F89830FBF791FB3861D8
:10B1000008E0FBF78DFB02463B69D31A022B01D9FD
:10B110000323A3E0534BD3F8983003F00203002B32
:10B12000EFD17B689B6A002B00F097804D4B9B68AA
:10B1300003F00C030C2B00F08E807B689B6A022BC3
:10B1400055D1484A474B1B6823F080731360FBF7C7
:10B1500067FB386108E0FBF763FB02463B69D31AE3
:10B16000022B01D9032379E03E4B1B6803F00073E7
:10B17000002BF0D13B497B681B6B013B1A017B68BC
:10B180005B6B1B021A437B68DB6A1A437B68DB6BD1
:10B190005B08013B5B051A437B681B6C5B08013B4A
:10B1A0005B061A437B689B6BDB061343CB602D4A1F
:10B1B0002C4B1B6843F0807313602A4A294BDB68D1
:10B1C00043F08073D360FBF72BFB386108E0FBF79B
:10B1D00027FB02463B69D31A022B01D903233DE02A
:10B1E000204B1B6803F00073002BF0D035E01D4AA4
:10B1F0001C4B1B6823F0807313601A4B1B6803F011
:10B200000063002B0BD1174B1B6803F00053002B7E
:10B2100005D1144A134BDB6823F00303D360114AB2
:10B22000104BDB6823F0887323F48033D360FBF783
:10B23000F7FA386108E0FBF7F3FA02463B69D31AE4
:10B24000022B01D9032309E0064B1B6803F00073AE
:10B25000002BF0D101E0012300E00023184618374D
:10B26000BD4680BD0010024080B584B000AF78605C
:10B2700039600023FB60844B1B6803F007023B68C6
:10B280009A4210D28049804B1B6823F007023B682A
:10B2900013430B607C4B1B6803F007023B689A4228
:10B2A00001D00123ECE07B681B6803F00103002B55
:10B2B00000F08E807B685B68032B07D1734B1B68A3
:10B2C00003F00073002B21D10123D9E07B685B6878
:10B2D000022B07D16D4B1B6803F40033002B15D1F3
